:100000000C942A000C9436000C945E000C9486002C
:100010000C9434000C9434000C9434000C94340090
:100020000C9434000C9434000C9434000C94340080
:100030000C9434000C9434000C9434000C94340070
:100040000C9434000C9434000C9434000C94340060
:100050000C94340011241FBECFE5D8E0DEBFCDBF25
:100060000E94E3000C94EE000C9400001F920F928B
:100070000FB60F9211242F938F939F9382B38061B9
:1000800082BB2FE78AE196E0215080409040E1F763
:1000900000C0000082B38F7E82BB2FE78AE196E02A
:1000A000215080409040E1F700C000009F918F9167
:1000B0002F910F900FBE0F901F9018951F920F92C7
:1000C0000FB60F9211242F938F939F9382B3806268
:1000D00082BB2FE78AE196E0215080409040E1F713
:1000E00000C0000082B38F7D82BB2FE78AE196E0DB
:1000F000215080409040E1F700C000009F918F9117
:100100002F910F900FBE0F901F9018951F920F9276
:100110000FB60F9211242F938F939F9382B3806415
:1001200082BB2FE78AE196E0215080409040E1F7C2
:1001300000C0000082B38F7B82BB2FE78AE196E08C
:10014000215080409040E1F700C000008AB78F7DC9
:100150008ABF9F918F912F910F900FBE0F901F908C
:10016000189582B3837F82BB81B3837F81BB81B3C8
:10017000806781BB089588B38B7F88BB87B38B7FF3
:1001800087BB08958FB780688FBF85B7816085BFB3
:100190008BB780648BBF08958FB780688FBF85B79A
:1001A000886085BF8BB780688BBF08958FB78F77C6
:1001B0008FBF84B7806484BF8FB780688FBF8BB7D1
:1001C00080628BBF08950E94B1000E94BB000E9414
:1001D000C2000E94CC000E94D600FFCFF894FFCF4F
:00000001FF
