:100000000C942A000C9447000C9447000C94470071
:100010000C9447000C9447000C9447000C94470044
:100020000C9447000C9447000C9447000C94470034
:100030000C9447000C9447000C9447000C94470024
:100040000C9447000C9447000C9447000C94470014
:100050000C94470011241FBECFE5D8E0DEBFCDBF12
:1000600010E0A0E6B0E0EAE3F5E002C005900D92F2
:10007000A638B107D9F720E0A6E8B0E001C01D928C
:10008000AE38B207E1F70E944E020C949B020C942A
:100090000000AF92CF92EF920F93CF93DF93CDB743
:1000A000DEB728970FB6F894DEBF0FBECDBF8983A9
:1000B0006A834B832C830D83EE82CF82A8862D81A9
:1000C00081E090E0AC0102C0440F551F2A95E2F791
:1000D0002E81BC0102C0660F771F2A95E2F79B01B3
:1000E000242B352B4F81BC0102C0660F771F4A9528
:1000F000E2F7262B372B4885BC0102C0660F771F1D
:100100004A95E2F7262B372B2095309531B32323E0
:1001100021BB2981AC0102C0440F551F2A95E2F78B
:100120002A81BC0102C0660F771F2A95E2F79B0166
:10013000242B352B4B81BC0102C0660F771F4A95DB
:10014000E2F7262B372B4C8102C0880F991F4A9566
:10015000E2F7822B932B91B3892B81BB8981E6E84F
:10016000F0E080838A8181838B8182838C81838389
:100170008D8184838E8185838F8186838885878323
:100180008FEF82BB28960FB6F894DEBF0FBECDBFAF
:10019000DF91CF910F91EF90CF90AF900895CF93D3
:1001A000DF9360E0A6E8B0E07FC0E6E8F0E0208101
:1001B00081E090E0AC0102C0440F551F2A95E2F7A0
:1001C0002181EC0102C0CC0FDD1F2A95E2F79E01D0
:1001D000242B352B4281EC0102C0CC0FDD1F4A9548
:1001E000E2F72C2B3D2B4381FC0102C0EE0FFF1FD9
:1001F0004A95E2F72E2B3F2B32B3232B22BB2C91B7
:1002000002C0880F991F2A95E2F78095909592B3C6
:10021000892382BB30E0EAE8F0E041C080B320816E
:1002200090E002C0959587952A95E2F780FD35C04C
:1002300080B3208190E002C0959587952A95E2F7DA
:1002400080FFF6CF313079F028F03230A9F033302A
:10025000E1F023C0662369F1613069F1623069F130
:100260006330D9F42CC0662361F1613061F16230F2
:1002700061F1633091F42BC0662359F1613059F17B
:10028000623059F1633049F42AC0662351F161307C
:1002900051F1623051F1633051F131963F5F3430AA
:1002A00008F4BCCF11966F5F643008F47ECF81E410
:1002B0001FC087E31DC084E31BC081E319C08EE427
:1002C00017C088E315C085E313C082E311C080E343
:1002D0000FC089E30DC086E30BC083E309C08DE343
:1002E00007C08FE205C08AE203C08DE201C08BE245
:1002F000DF91CF91089588B3886088BB8FEC97E039
:100300000197F1F700C0000088B3877F88BB08958C
:1003100090EF9ABB813031F078F0823089F08330F1
:10032000B1F008958AB38F708ABB88B3846088BBAC
:1003300088B38D7F88BB089588B3897F88BB089573
:1003400088B3826088BB88B38B7F88BB089588B3ED
:10035000866088BB0895CF93C82F807F8BBB80E0D9
:100360000E9488010E947B01C295C07FCBBB80E0C8
:100370000E9488010E947B01CF9108958FE39CE940
:100380000197F1F700C0000087B38E6087BB88B388
:10039000817F88BB8FEF8ABB8FE295E70197F1F7EA
:1003A00000C0000082E00E94AB0188E20E94AB0125
:1003B00086E00E94AB0180E80E94AB018FE00E94C2
:1003C000AB010895CF93C82F807F8BBB82E00E9442
:1003D00088010E947B01C295C07FCBBB82E00E9456
:1003E00088010E947B01CF9108950F931F93CF93B3
:1003F0006830C0F48C0188E0860F880F880F880F62
:100400000E94AB01C0E007C0F801EC0FF11D808134
:100410000E94E201CF5FC830B8F380E80E94AB01D0
:1004200081E001C080E0CF911F910F91089581304C
:1004300039F4603168F480E8860F0E94AB010895BA
:10044000823031F4603120F480EC860F0E94AB01E1
:1004500008950F931F93CF938C01C0E016C00F5FD8
:100460001F4F0E94E201CF5FC03129F460E082E0BB
:100470000E9417020AC0C03241F481E00E94AB0121
:1004800060E081E00E941702C0E0F80180818111E4
:10049000E6CF8C2FCF911F910F9108950F2EF7E08B
:1004A000AF2EF02D0F2EF6E0CF2EF02D0F2EF5E013
:1004B000EF2EF02D04E023E042E061E080E00E94B6
:1004C00049000E94BE0160E08EE790E00E94F501C5
:1004D00061E086E790E00E94F50180E690E00E94EE
:1004E000290280E20E94E20180E00E94E20181E0B4
:1004F0000E94E2012FEF8EE994E22150804090406B
:10050000E1F700C0000081E00E94AB0160E081E003
:100510000E9417020E94CF008134E1F38E3441F42F
:1005200081E00E94AB0160E081E00E941702F2CFFF
:0A0530000E94E201EFCFF894FFCF24
:10053A00416264756C72686D616E20416C61612DF7
:10054A00456C64696E00001B1F1F0E040000040E38
:06055A000E0E1F0004005C
:00000001FF
