:100000000C942A000C9449010C9470010C949701F3
:100010000C9447000C9447000C9447000C94470044
:100020000C9447000C9447000C9447000C94470034
:100030000C9447000C9447000C9447000C94470024
:100040000C9447000C9447000C9447000C94470014
:100050000C94470011241FBECFE5D8E0DEBFCDBF12
:1000600010E0A0E6B0E0E0EDF5E002C005900D92F2
:10007000A836B107D9F720E0A8E6B0E001C01D928C
:10008000AE36B207E1F70E945E020C94E6020C94D1
:1000900000001F93CF93DF9300D0CDB7DEB78FE37F
:1000A0009CE90197F1F700C000008EE0898311E020
:1000B0001A83BE016F5F7F4F86E390E00E942301A9
:1000C00040E06EE086E390E00E943A018FEF898382
:1000D0001A83BE016F5F7F4F89E390E00E94230186
:1000E0008FE295E70197F1F700C000000F900F90A5
:1000F000DF91CF911F91089541E068E086E390E0A1
:100100000E943A018FE097E20197F1F700C00000EA
:1001100040E068E086E390E00E943A010895CF93C2
:10012000C82F40EF61E089E390E00E941601C130E2
:1001300031F0C0F0C230E9F0C33041F12DC040EFE2
:1001400060E089E390E00E94160141E064E086E30C
:1001500090E00E943A0140E062E086E390E00E9475
:100160003A011AC040E066E086E390E00E943A015E
:1001700013C041E062E086E390E00E943A0140E073
:1001800064E086E390E00E943A0106C041E066E048
:1001900086E390E00E943A01CF910895CF93C82F53
:1001A000682F607F89E390E00E94460180E00E9412
:1001B0008F000E947C006C2F6295607F89E390E045
:1001C0000E94460180E00E948F000E947C00CF9137
:1001D00008950E94490082E00E94CE0088E20E94B9
:1001E000CE0086E00E94CE0080E80E94CE008FE024
:1001F0000E94CE000895CF93C82F682F607F89E3B7
:1002000090E00E94460182E00E948F000E947C00E4
:100210006C2F6295607F89E390E00E94460182E046
:100220000E948F000E947C00CF910895611106C04A
:10023000FC0121814095422341830895FC012181E5
:10024000422B41830895FC01DB0111969C9111978B
:10025000911108C02C9130E02095309581812823A0
:1002600021830895913029F4DB019C918181892BB0
:1002700081830895FC01413021F48281682B6283DF
:10028000089592816095692362830895FC016283D9
:1002900008951F920F920FB60F9211242F933F9340
:1002A0004F935F936F937F938F939F93AF93BF937E
:1002B000EF93FF93E0916A00F0916B000995FF9135
:1002C000EF91BF91AF919F918F917F916F915F91CE
:1002D0004F913F912F910F900FBE0F901F90189547
:1002E0001F920F920FB60F9211242F933F934F93AB
:1002F0005F936F937F938F939F93AF93BF93EF938E
:10030000FF93E0916C00F0916D000995FF91EF91E2
:10031000BF91AF919F918F917F916F915F914F911D
:100320003F912F910F900FBE0F901F9018951F9225
:100330000F920FB60F9211242F933F934F935F9319
:100340006F937F938F939F93AF93BF93EF93FF939D
:10035000E0916800F091690009958AB78F7D8ABFA6
:10036000FF91EF91BF91AF919F918F917F916F918D
:100370005F914F913F912F910F900FBE0F901F9063
:100380001895CF93DF93EC018C81882339F081306D
:1003900051F428E030E040E050E009C020E130E0D6
:1003A00040E050E004C022E030E040E050E06881EE
:1003B00079818A819B810E949A029B01AC0160E055
:1003C00072E18AE790E00E94AA0221503109832F4E
:1003D0008F7080BD29B98C81813021F48BB182600E
:1003E0008BB903C08BB18D7F8BB98E8182FB88273F
:1003F00080F99AB180FB92F99AB98AB188608AB97A
:100400008AB180618AB980B5806880BD8C81823074
:1004100039F080B58F7B80BD80B58E7F80BD08C0F0
:1004200080B5806480BD9D8180B590FB80F980BDE2
:1004300088858370982F9295907F80B58F7C892BCB
:1004400080BD9F8180B590FB83F980BD8E818370D4
:10045000982F990F80B5897F892B80BDDF91CF912F
:100460000895CF92DF92EF92FF92FC010DC082813E
:1004700085FFFDCFDB01AC0DBD1D8C918383828197
:1004800086FFFDCFA701960169017A0181E0C81AB4
:10049000D108E108F108232B242B252B41F781E01B
:1004A000FF90EF90DF90CF900895FC019281992307
:1004B000ECF78381FB01808381E00895CF93DF9384
:1004C000CDB7DEB760970FB6F894DEBF0FBECDBFD5
:1004D0000E94E90080E895E2A0E0B0E089839A8379
:1004E000AB83BC831D8283E08F8318861986CE017F
:1004F00001960E94C10186E0E0E6F0E0DE011A9676
:1005000001900D928A95E1F726E030E040E050E05E
:10051000BE01665F7F4F89E290E00E943102BE011A
:10052000605F7F4F89E290E00E94550288890E94B7
:10053000FB00F5CFDB018F939F930E94CC02BF910C
:10054000AF91A29F800D911DA39F900DB29F900D22
:1005500011240895A1E21A2EAA1BBB1BFD010DC098
:10056000AA1FBB1FEE1FFF1FA217B307E407F50763
:1005700020F0A21BB30BE40BF50B661F771F881F3F
:10058000991F1A9469F760957095809590959B01D5
:10059000AC01BD01CF0108950E94D702A59F900D27
:1005A000B49F900DA49F800D911D11240895A29FCA
:1005B000B001B39FC001A39F700D811D1124911D37
:1005C000B29F700D811D1124911D0895F894FFCFE5
:0805D00048414D414441000087
:00000001FF
