:020000040800F2
:100000000028002015130008651300086513000878
:100010006513000865130008651300080000000060
:100020000000000000000000000000006513000850
:100030006513000800000000651300086513000840
:1000400065130008651300086513000865130008B0
:100050006513000865130008A9090008CD09000808
:10006000F1090008150A0008390A0008651300089C
:100070006513000865130008651300086513000880
:100080006513000865130008651300086513000870
:100090006513000865130008651300085D0A000871
:1000A0006513000865130008651300086513000850
:1000B0006513000865130008651300086513000840
:1000C0006513000865130008651300086513000830
:1000D00065130008691200087D12000891120008DB
:1000E000A10A00086513000800000000651300085D
:1000F0006513000865130008651300086513000800
:1001000065130008651300086513000865130008EF
:1001100065130008651300086513000865130008DF
:1001200065130008651300086513000865130008CF
:1001300010B5054C237833B9044B13B10448AFF321
:1001400000800123237010BD2C000020000000005F
:10015000B013000808B5034B1BB103490348AFF3C4
:10016000008008BD0000000030000020B01300082F
:1001700081F0004102E000BF83F0004330B54FEA58
:1001800041044FEA430594EA050F08BF90EA020FC5
:100190001FBF54EA000C55EA020C7FEA645C7FEA58
:1001A000655C00F0E2804FEA5454D4EB5555B8BF7B
:1001B0006D420CDD2C4480EA020281EA030382EAEC
:1001C000000083EA010180EA020281EA0303362D7E
:1001D00088BF30BD11F0004F4FEA01314FF4801C51
:1001E0004CEA113102D0404261EB410113F0004F63
:1001F0004FEA03334CEA133302D0524263EB43031A
:1002000094EA050F00F0A780A4F10104D5F1200EB7
:100210000DDB02FA0EFC22FA05F2801841F1000112
:1002200003FA0EF2801843FA05F359410EE0A5F1E6
:1002300020050EF1200E012A03FA0EFC28BF4CF017
:10024000020C43FA05F3C01851EBE37101F00045CD
:1002500007D54FF0000EDCF1000C7EEB00006EEBDA
:100260000101B1F5801F1BD3B1F5001F0CD3490864
:100270005FEA30004FEA3C0C04F101044FEA4452BB
:1002800012F5800F80F09A80BCF1004F08BF5FEA42
:10029000500C50F1000041EB045141EA050130BD22
:1002A0005FEA4C0C404141EB010111F4801FA4F1C5
:1002B0000104E9D191F0000F04BF01460020B1FA1A
:1002C00081F308BF2033A3F10B03B3F120020CDA52
:1002D0000C3208DD02F1140CC2F10C0201FA0CF030
:1002E00021FA02F10CE002F11402D8BFC2F1200C95
:1002F00001FA02F120FA0CFCDCBF41EA0C0190404B
:10030000E41AA2BF01EB0451294330BD6FEA040493
:100310001F3C1CDA0C340EDC04F11404C4F120027E
:1003200020FA04F001FA02F340EA030021FA04F390
:1003300045EA030130BDC4F10C04C4F1200220FAE7
:1003400002F001FA04F340EA0300294630BD21FA25
:1003500004F0294630BD94F0000F83F4801306BFEB
:1003600081F480110134013D4EE77FEA645C18BFDF
:100370007FEA655C29D094EA050F08BF90EA020F76
:1003800005D054EA000C04BF1946104630BD91EA6E
:10039000030F1EBF0021002030BD5FEA545C05D171
:1003A0004000494128BF41F0004130BD14F58004B0
:1003B0003CBF01F5801130BD01F0004545F0FE4124
:1003C00041F470014FF0000030BD7FEA645C1ABF59
:1003D000194610467FEA655C1CBF0B46024650EA90
:1003E000013406BF52EA033591EA030F41F40021BC
:1003F00030BD00BF90F0000F04BF0021704730B542
:100400004FF4806404F132044FF000054FF0000116
:1004100050E700BF90F0000F04BF0021704730B5D7
:100420004FF4806404F1320410F0004548BF4042AC
:100430004FF000013EE700BF42004FEAE2014FEA01
:1004400031014FEA02701FBF12F07F4393F07F4FDC
:1004500081F06051704732F07F4208BF704793F0DF
:100460007F4F04BF41F40021704730B54FF46074F2
:1004700001F0004521F000411CE700BF50EA0102F5
:1004800008BF704730B54FF000050AE050EA01029E
:1004900008BF704730B511F0004502D5404261EB0E
:1004A00041014FF4806404F132045FEA915C3FF44F
:1004B000D8AE4FF003025FEADC0C18BF03325FEAEC
:1004C000DC0C18BF033202EBDC02C2F1200300FA9D
:1004D00003FC20FA02F001FA03FE40EA0E0021FAC2
:1004E00002F11444BDE600BF70B54FF0FF0C4CF4B0
:1004F000E06C1CEA11541DBF1CEA135594EA0C0F62
:1005000095EA0C0F00F0DEF82C4481EA030621EA9C
:100510004C5123EA4C5350EA013518BF52EA0335D7
:1005200041F4801143F4801338D0A0FB02CE4FF089
:100530000005E1FB02E506F00042E0FB03E54FF0B9
:100540000006E1FB03569CF0000F18BF4EF0010EB1
:10055000A4F1FF04B6F5007F64F5407404D25FEAAD
:100560004E0E6D4146EB060642EAC62141EA555160
:100570004FEAC52040EA5E504FEACE2EB4F1FD0CA2
:1005800088BFBCF5E06F1ED8BEF1004F08BF5FEA20
:10059000500E50F1000041EB045170BD06F00046D2
:1005A00046EA010140EA020081EA0301B4EB5C047F
:1005B000C2BFD4EB0C0541EA045170BD41F4801177
:1005C0004FF0000E013C00F3AB8014F1360FDEBF9C
:1005D000002001F0004170BDC4F10004203C35DA78
:1005E0000C341BDC04F11404C4F1200500FA05F3FB
:1005F00020FA04F001FA05F240EA020001F000429C
:1006000021F0004110EBD37021FA04F642EB060111
:100610005EEA430E08BF20EAD37070BDC4F10C043B
:10062000C4F1200500FA04F320FA05F001FA04F2FF
:1006300040EA020001F0004110EBD37041F10001EB
:100640005EEA430E08BF20EAD37070BDC4F12005F6
:1006500000FA05F24EEA020E20FA04F301FA05F25E
:1006600043EA020321FA04F001F0004121FA04F206
:1006700020EA020000EBD3705EEA430E08BF20EAD6
:10068000D37070BD94F0000F0FD101F00046400010
:1006900041EB010111F4801F08BF013CF7D041EA92
:1006A000060195F0000F18BF704703F00046520096
:1006B00043EB030313F4801F08BF013DF7D043EA67
:1006C0000603704794EA0C0F0CEA135518BF95EA1D
:1006D0000C0F0CD050EA410618BF52EA4306D1D1A4
:1006E00081EA030101F000414FF0000070BD50EAC3
:1006F000410606BF1046194652EA430619D094EA4D
:100700000C0F02D150EA013613D195EA0C0F05D136
:1007100052EA03361CBF104619460AD181EA03018A
:1007200001F0004141F0FE4141F470014FF0000042
:1007300070BD41F0FE4141F4780170BD70B54FF0DD
:10074000FF0C4CF4E06C1CEA11541DBF1CEA13555D
:1007500094EA0C0F95EA0C0F00F0A7F8A4EB05043F
:1007600081EA030E52EA03354FEA013100F0888036
:100770004FEA03334FF0805545EA131343EA1263FF
:100780004FEA022245EA111545EA10654FEA0026B4
:100790000EF000419D4208BF964244F1FD0404F56D
:1007A000407402D25B084FEA3202B61A65EB0305C9
:1007B0005B084FEA32024FF480104FF4002CB6EB86
:1007C000020E75EB030E22BFB61A754640EA0C0006
:1007D0005B084FEA3202B6EB020E75EB030E22BF46
:1007E000B61A754640EA5C005B084FEA3202B6EB87
:1007F000020E75EB030E22BFB61A754640EA9C0046
:100800005B084FEA3202B6EB020E75EB030E22BF15
:10081000B61A754640EADC0055EA060E18D04FEAD3
:10082000051545EA16754FEA06164FEAC30343EA73
:1008300052734FEAC2025FEA1C1CC0D111F4801F40
:100840000BD141EA00014FF000004FF0004CB6E739
:1008500011F4801F04BF01430020B4F1FD0C88BFD8
:10086000BCF5E06F3FF6AFAEB5EB030C04BFB6EBE3
:10087000020C5FEA500C50F1000041EB045170BDD6
:100880000EF0004E4EEA113114EB5C04C2BFD4EB03
:100890000C0541EA045170BD41F480114FF0000E87
:1008A000013C90E645EA060E8DE60CEA135594EA03
:1008B0000C0F08BF95EA0C0F3FF43BAF94EA0C0F06
:1008C0000AD150EA01347FF434AF95EA0C0F7FF47B
:1008D00025AF104619462CE795EA0C0F06D152EACF
:1008E00003353FF4FDAE1046194622E750EA4106B3
:1008F00018BF52EA43067FF4C5AE50EA41047FF4C4
:100900000DAF52EA43057FF4EBAE12E74A0011D275
:1009100012F5001211D20DD56FF47873B3EB625259
:100920000ED44FEAC12343F0004343EA505323FA65
:1009300002F070474FF00000704750EA013002D1DA
:100940004FF0FF3070474FF00000704780B485B023
:1009500000AF78600B46FB70FB78BB73FB78052B10
:1009600001D1052300E006237B730023FB730EE017
:100970007B681A68BB7B22FA03F33B733B7B012B3A
:100980000AD0BB7B0133BB73FB7B0133FB73FA7B68
:100990007B7B9A42ECD300E000BFBB7B1846143748
:1009A000BD4680BC7047000080B500AF054B5B6959
:1009B000044A43F001035361034B1B68984700BF8F
:1009C00080BD00BF000401404C00002080B500AF96
:1009D000054B5B69044A43F002035361034B5B68B8
:1009E000984700BF80BD00BF000401404C000020BC
:1009F00080B500AF054B5B69044A43F004035361C3
:100A0000034B9B68984700BF80BD00BF00040140B6
:100A10004C00002080B500AF054B5B69044A43F0F1
:100A200008035361034BDB68984700BF80BD00BFDC
:100A3000000401404C00002080B500AF054B5B690D
:100A4000044A43F010035361034B1B69984700BFEE
:100A500080BD00BF000401404C00002080B582B082
:100A600000AF0D4B5B6903F478737B607A680A4BC7
:100A70005B69094913434B613B1D05211846FFF78C
:100A800065FF03461A46054B53F82230984700BFCE
:100A90000837BD4680BD00BF000401404C00002067
:100AA00080B582B000AF0D4B5B6903F47C437B6083
:100AB0007A680A4B5B69094913434B613B1D0A2164
:100AC0001846FFF743FF03461A46054B53F82230FA
:100AD000984700BF0837BD4680BD00BF00040140F5
:100AE0004C00002080B485B000AF0346FB801DE0C1
:100AF000FB88154A1278134103F00103002B05D03F
:100B0000114B1B789BB201339BB200E00023FB81A9
:100B10000D4B1B780133DAB20B4B1A70FB89002B9B
:100B200004D0FB89DBB2013BDBB207E0064B1B784C
:100B3000102BDDD1044B00221A70FF231846143706
:100B4000BD4680BC704700BF4800002080B483B021
:100B500000AF78607B68174A934206D1164B9B69B9
:100B6000154A43F0040393611FE07B68134A9342E4
:100B700006D1114B9B69104A43F00803936114E0BE
:100B80007B680F4A934206D10B4B9B690A4A43F09C
:100B90001003936109E07B680A4A934205D1064B32
:100BA0009B69054A43F02003936100BF0C37BD46A3
:100BB00080BC70470008014000100240000C01405A
:100BC000001001400014014080B586B000AF78608D
:100BD00039607868FFF7BAFF38E0FB7DBB75FB7DB5
:100BE000072B03D9FB7D083BDBB200E0FB7DFB75E7
:100BF000BB7D072B01D87B6801E07B6804333B6138
:100C00003B689B78002B02D13B68DB7801E03B68B6
:100C10001B79FB733B691A68FB7D9B00DBB21946AD
:100C20000F238B40DB431A403B691A603B691A680B
:100C30003B685979FB7B0B43DBB21946FB7D9B007C
:100C4000DBB201FA03F31A433B691A603B681B8865
:100C50009BB21846FFF746FF0346FB75FB7DFF2B53
:100C6000BBD100BF1837BD4680BD000080B500AFC6
:100C700000F028F80146064B1B685B68DB0A03F0AE
:100C80000703044AD35CB1FBF3F3184680BD00BFF1
:100C9000000000200400002080B500AF00F012F832
:100CA0000146064B1B685B681B0A03F00703044AF6
:100CB000D35CB1FBF3F3184680BD00BF00000020F9
:100CC0000400002080B500AF00F012F80146064B8A
:100CD0001B685B681B0903F00F03044A32F81330EA
:100CE000B1FBF3F3184680BD000000200C0000208B
:100CF00080B400AF0B4B1B685B689B0803F00303D9
:100D0000012B06D0012B02D3022B04D005E0064BA9
:100D100004E0064B02E0054B00E000231846BD4608
:100D200080BC70470000002000127A000024F4000C
:100D300080B586B000AF78607B68734A934203D079
:100D40007B68724A934276D1714B7B6108233B7476
:100D500001237B740123BB737B686B4A934203D1ED
:100D60004FF40073BB8101E00423BB8107F10C0346
:100D700019467869FFF728FF0423FB7300237B746F
:100D80000023BB737B68604A934203D14FF48063B6
:100D9000BB8101E00823BB8107F10C031946786988
:100DA000FFF712FF7B689B8AC3F30123DBB2022BA0
:100DB00006D07B689B8AC3F30123DBB2032B15D1DA
:100DC0000423FB7300237B740023BB737B684E4AB0
:100DD000934203D14FF40063BB8101E00123BB8147
:100DE00007F10C0319467869FFF7EEFE7B689B8AD2
:100DF000C3F30123DBB2012B06D07B689B8AC3F3CC
:100E00000123DBB2032B79D108233B7401237B74CC
:100E10000123BB737B683C4A934203D14FF4805358
:100E2000BB8101E00223BB8107F10C0319467869FD
:100E3000FFF7CAFE62E07B68364A93425FD1364BC9
:100E40007B6108233B7401237B740123BB734FF444
:100E50008063BB8107F10C0319467869FFF7B4FE84
:100E60000423FB7300237B740023BB734FF40063E4
:100E7000BB8107F10C0319467869FFF7A5FE7B6873
:100E80009B8AC3F30123DBB2022B06D07B689B8ACB
:100E9000C3F30123DBB2032B0ED10423FB73002326
:100EA0007B740023BB734FF40053BB8107F10C0329
:100EB00019467869FFF788FE7B689B8AC3F3012394
:100EC000DBB2012B06D07B689B8AC3F30123DBB224
:100ED000032B14D108233B7401237B740123BB73C0
:100EE0007B68094A934202D14FF48043BB8107F1EA
:100EF0000C0319467869FFF767FE00E000BF00BFEA
:100F00001837BD4680BD00BF003801400044004096
:100F10000008014000480040000C0140B0B586B018
:100F200000AF786039607B682A4A934203D1FFF7AB
:100F30009DFE786102E0FFF7AFFE78617B69642275
:100F400002FB03F31846FFF755FA04460D463B68CB
:100F50001B681B011846FFF74DFA02460B46204658
:100F60002946FFF7EBFB03460C4618462146FFF7E0
:100F7000CDFC03467B827B8A174AA2FB03235B09D5
:100F80003B827B8A144AA2FB03125209642101FBB3
:100F900002F29B1A9BB21B010F4A82FB03125211F1
:100FA000DB17D31AFB813B8AC3F30B0399B27A6830
:100FB000138961F30F131381FB8903F00F03D9B277
:100FC0007A68138961F30303138100BF1837BD46A4
:100FD000B0BD00BF003801401F85EB5180B582B025
:100FE00000AF786039607B68634A934203D07B68C6
:100FF000624A934211D17B685F4A934206D1604BAB
:101000009B695F4A43F48043936110E05C4BDB696A
:101010005B4A43F40033D36109E07B68594A934249
:1010200005D1574BDB69564A43F48023D3617A6874
:10103000938943F4005393813B681B7903F00103C8
:10104000D9B27A68938961F30C3393813B685B79F9
:1010500003F00303D9B27A68138A61F30D33138264
:101060003B68DB79002B05D17A68938943F008034C
:10107000938113E03B68DB79012B05D17A68938972
:1010800043F00403938109E07A68938943F00803ED
:1010900093817A68938943F0040393813B689B7939
:1010A000022B0FD07A68938943F4806393813B6865
:1010B0009B7903F00103D9B27A68938961F34923DC
:1010C000938104E07A6893896FF38A2393813B6864
:1010D0005B7A03F00303D9B27A68938A61F3092338
:1010E00093827868FFF724FE3B6819467868FFF71B
:1010F00015FF3B681B7A002B39D07B681E4A934250
:101100000AD13B68DB68204A1360204B5B681F4AAA
:1011100043F02003536018E07B68184A93420AD1D9
:101120003B68DB68184A5360184B5B68174A43F00A
:101130004003536009E03B68DB68134A9360134B3C
:101140005B68124A43F0800353607B689B89C3F35A
:101150000413DBB21A463B681B7A1343DBB203F07D
:101160001F03D9B27A68938961F30813938100BF92
:101170000837BD4680BD00BF003801400044004034
:1011800000100240004800408800002000E100E01C
:1011900080B485B000AFF860B9601346FB71FB798D
:1011A000012B07D100BFFB681B88C3F3C013DBB260
:1011B000002BF8D0FB689B89C3F30033DBB2002B14
:1011C00005D1BB681B88DAB2FB685A6005E0BB68D2
:1011D0001B88C3F30802FB685A60FB79012B07D117
:1011E00000BFFB681B88C3F38013DBB2002BF8D071
:1011F00000BF1437BD4680BC704780B485B000AFD7
:10120000F860B9601346FB71FB79012B07D100BF71
:10121000FB681B88C3F34013DBB2002BF8D0FB68DC
:101220009B89C3F30033DBB2002B0CD1FB689B8995
:10123000C3F38023FB685B689BB203F07F039AB221
:10124000BB681A800BE0FB689B89C3F38023FB68B3
:101250005B689BB2C3F308039AB2BB681A8000BFF5
:101260001437BD4680BC704780B500AF024B1B6889
:10127000984700BF80BD00BF8800002080B500AF48
:10128000024B5B68984700BF80BD00BF880000200C
:1012900080B500AF024B9B68984700BF80BD00BF80
:1012A0008800002080B500AF002205490548FFF7FF
:1012B000A4FF012202490348FFF76AFF00BF80BD77
:1012C000A80000200038014080B500AF0E4B4FF45D
:1012D00016521A600C4B00221A710B4B00225A71E5
:1012E000094B02229A71084B0222DA71064B002246
:1012F0005A72054B02221A72034B044ADA60024901
:101300000348FFF76BFEFEE798000020A5120008D7
:10131000003801400D488546AFF300800C480D4968
:101320000D4A002302E0D458C4500433C4188C4240
:10133000F9D30A4A0A4C002301E013600432A242A6
:10134000FBD300F011F8FFF7BFFFFEE700280020F5
:10135000000000202C000020D01300082C000020EA
:10136000AC000020FEE7000070B500250C4E0D4CCF
:10137000A41BA410A54209D100F01AF800250A4EBA
:101380000A4CA41BA410A54205D170BD56F8253007
:1013900098470135EEE756F8253098470135F2E7D2
:1013A000C8130008C8130008C8130008CC130008AD
:1013B000F8B500BFF8BC08BC9E467047F8B500BF42
:0813C000F8BC08BC9E46704712
:0413C80055010008C3
:0413CC0031010008E3
:1013D0000010024001010101020408100100010097
:1013E00001000100010001000100010002000400F1
:0C13F00008001000400080000001000216
:0400000508001315C7
:00000001FF
